:100000000C9458000C9480000C9480000C94800098
:100010000C9480000C9480000C9480000C94800060
:100020000C9480000C9480000C9480000C94800050
:100030000C9480000C9480000C9480000C94800040
:100040000C94FE040C9480000C94CC040C94A60434
:100050000C9480000C9480000C9480000C94800020
:100060000C9448050C948000000000002500280036
:100070002B00040404040404040402020202020229
:10008000030303030303010204081020408001025C
:1000900004081020010204081020000000080002DB
:1000A00001000003040700000000000000007606C5
:1000B00011241FBECFEFD8E0DEBFCDBF27E0A8E2FE
:1000C000B1E001C01D92A239B207E1F711E0A0E052
:1000D000B1E0E4E4F3E102C005900D92A832B1076B
:1000E000D9F710E0C8E5D0E004C02197FE010E94D6
:1000F0009509C735D107C9F70E94AF060C94A0092E
:100100000C940000EF92FF920F931F93CF93DF9315
:100110008B017C01C0E0D0E0C017D10709F44AC0D0
:100120002FB7F8948091E5069091E606A091E70636
:10013000B091E8062FBF8093F1069093F206A0934A
:10014000F306B093F406E091E906F091EA06028422
:10015000F385E02D89EE96E0099597FF26C08FB7CD
:10016000F8944091E5065091E6066091E70670919B
:10017000E8068FBF8091F1069091F206A091F306F8
:10018000B091F406481B590B6A0B7B0B8091ED066E
:100190009091EE06A091EF06B091F006481759072E
:1001A0006A077B0780F28E0105C0F70181937F010A
:1001B0002196B2CFC801DF91CF911F910F91FF908F
:1001C000EF9008952091E4069091E306213208F023
:1001D0004AC08091C0068111FCCF32E03093C00646
:1001E00031E03093BF063FEF3093BE061092BD065C
:1001F0002093BC06A3ECB6E04CE956E0FA013E2F92
:10020000341B321718F43D913193F9CF10929B06AD
:1002100020919B06990F922B90939B0690919A06A2
:10022000913061F410929A0690919B069093BB00D6
:100230009091BC0093FDF8CF95EC01C095EE9093A2
:10024000BC009091C0069230E1F39091BE069F3FB2
:1002500079F08091BE06803241F08091BE068033F5
:1002600031F084E005C081E003C082E001C083E09A
:100270001092C2061092E4061092C106089590E012
:10028000FC01E656FF4F2491FC01EA57FF4F3491E1
:10029000FC01EE58FF4FE491EE23B1F1222339F136
:1002A000233091F038F42130A9F0223001F584B5E3
:1002B0008F7D12C0273091F02830A1F02430B9F49E
:1002C000809180008F7D03C0809180008F77809324
:1002D00080000DC084B58F7784BD09C08091B000C7
:1002E0008F7703C08091B0008F7D8093B000F0E0E5
:1002F000EE0FFF1FE859FF4FA591B4918FB7F89407
:10030000EC913E2B3C938FBF08958091780690E04E
:1003100020917906821B91090895CF92DF92EF9286
:10032000FF920F931F93CF93DF936C017A018B01A0
:10033000C0E0D0E0CE15DF0589F0D8016D918D01C8
:10034000D601ED91FC910190F081E02DC601099557
:10035000892B11F47E0102C02196ECCFC701DF91F9
:10036000CF911F910F91FF90EF90DF90CF90089564
:10037000FC01538D448D252F30E0842F90E0821BAB
:10038000930B541710F0CF96089501970895FC0130
:10039000918D828D981761F0828DDF01A80FB11DBC
:1003A0005D968C91928D9F5F9F73928F90E00895E0
:1003B0008FEF9FEF0895FC01918D828D981731F09A
:1003C000828DE80FF11D858D90E008958FEF9FEFEE
:1003D0000895FC01918D228D892F90E0805C9F4FC4
:1003E000821B91098F739927089589EE96E00E94E8
:1003F000E90121E0892B09F420E0822F0895FC0116
:10040000848DDF01A80FB11DA35ABF4F2C91848D9D
:1004100090E001968F739927848FA689B7892C93D2
:10042000A089B1898C9180648C93938D848D98136D
:1004300006C00288F389E02D80818F7D8083089536
:10044000EF92FF920F931F93CF93DF93EC0181E024
:10045000888F9B8D8C8D981305C0E889F9898081E0
:1004600085FD24C0F62E0B8D10E00F5F1F4F0F731C
:100470001127E02E8C8DE8120CC00FB607FCFACFC6
:10048000E889F989808185FFF5CFCE010E94FF01BF
:10049000F1CF8B8DFE01E80FF11DE35AFF4FF08283
:1004A0000B8FEA89FB898081806207C0EE89FF8912
:1004B0006083E889F98980818064808381E090E0AD
:1004C000DF91CF911F910F91FF90EF900895682FCA
:1004D00089EE96E00C942002CF93DF93EC01888D97
:1004E0008823C9F0EA89FB89808185FD05C0A88938
:1004F000B9898C9186FD0FC00FB607FCF5CF8081BE
:1005000085FFF2CFA889B9898C9185FFEDCFCE0107
:100510000E94FF01E7CFDF91CF91089580E090E046
:10052000892B29F00E94F50181110C940000089597
:100530003FB7F8948091700190917101A091720180
:10054000B091730126B5A89B05C02F3F19F0019605
:10055000A11DB11D3FBFBA2FA92F982F8827820F49
:10056000911DA11DB11DBC01CD0142E0660F771F99
:10057000881F991F4A95D1F708958F929F92AF9245
:10058000BF92CF92DF92EF92FF926B017C010E94AB
:1005900098024B015C01C114D104E104F104F1F0B3
:1005A0000E949802DC01CB0188199909AA09BB09AC
:1005B000883E9340A105B10570F321E0C21AD1082D
:1005C000E108F10888EE880E83E0981EA11CB11C9A
:1005D000C114D104E104F10419F7DDCFFF90EF90CD
:1005E000DF90CF90BF90AF909F908F90089585ED52
:1005F0008093BC008091BC0084FDFCCF1092C006AB
:10060000089540914A01262F30E0240F311D2132F8
:100610003105DCF42091C0062430C9F4FC0180E0EF
:1006200090E0861758F430914A012191DC01A85DD1
:10063000BE4FA30FB11D2C930196F3CF80914A01B9
:10064000680F60934A0180E0089581E0089582E098
:1006500008950895E091790680917806E81730F4BE
:10066000F0E0E658F94F808190E008958FEF9FEF1A
:1006700008959091790680917806981750F4E92FA3
:10068000F0E0E658F94F208130E09F5F90937906C3
:1006900002C02FEF3FEFC9010895CF92DF92EF9292
:1006A000FF920F931F93CF93DF937C01262F972FF9
:1006B0008A018091C106882391F0C62FD72F6E0141
:1006C000C40ED51ECC15DD0571F06991D701ED91F1
:1006D000FC910190F081E02DC7010995F3CF642FC3
:1006E000822F0E940103C801DF91CF911F910F91CA
:1006F000FF90EF90DF90CF900895CF93DF931F92FC
:10070000CDB7DEB769832091C1062223D1F02091B5
:10071000E406203240F021E030E0FC013383228304
:1007200080E090E015C08091C206E82FF0E0ED5324
:10073000F94F998190838F5F8093C2068093E4067E
:1007400005C061E0CE0101960E94010381E090E0C6
:100750000F90DF91CF910895089580E090E0089583
:10076000CF93DF931F92CDB7DEB791E09093C10690
:100770008093E3061092C2061092E40686E897E0A2
:1007800049830E947D034981642F86E897E00E9497
:100790007D0365E070E080E090E00E94BD020F9074
:1007A000DF91CF910C94E20042E050E064E271E00E
:1007B00089EE96E00C948D0161E070E086E795E0AB
:1007C0000E94820089E990E00E9467020E94D4039F
:1007D00061E070E084E793E00E94820089E990E0A4
:1007E0000E9467020E94D4036091740370E086E760
:1007F00094E00E94820089E990E00E9467020E94D2
:10080000D4036091740370E086E793E00C94820057
:100810008F929F92AF92BF920F931F93CF93DF93CC
:10082000CDB7DEB7A1970FB6F894DEBF0FBECDBF30
:1008300019A2423008F44AE08E010F5D1F4F842E4A
:10084000912CA12CB12CA50194010E947309E62FD3
:10085000B901CA0101501109EA3014F4E05D01C088
:10086000E95CD801EC93232B242B252B61F7011590
:10087000110571F0F80101900020E9F73197AF01FF
:10088000401B510BB80189EE96E00E948D0102C019
:1008900080E090E0A1960FB6F894DEBF0FBECDBF0A
:1008A000DF91CF911F910F91BF90AF909F908F904C
:1008B00008959091C0069111FCCF613208F060E27A
:1008C00091E09093C0069093BF062FEF2093BE0651
:1008D0001092BD06260F2093BC0690939B06909124
:1008E0009B06880F892B80939B0680919A06813006
:1008F00061F410929A0680919B068093BB008091D0
:10090000BC0083FDF8CF85EC01C085EE8093BC0070
:100910008091C0068130E1F38091BD06861710F406
:100920006091BD06ACE9B6E02AE736E0F9018E2F0A
:10093000821B861718F48D918193F9CF1092790656
:1009400060937806862F08950E949B091F920F924C
:100950000FB60F9211242F933F934F935F936F9392
:100960007F938F939F93AF93BF93EF93FF9389EE02
:1009700096E00E94FF01FF91EF91BF91AF919F918F
:100980008F917F916F915F914F913F912F910F9038
:100990000FBE0F901F9018951F920F920FB60F92D7
:1009A00011242F938F939F93EF93FF93E091F90678
:1009B000F091FA068081E091FF06F091000782FD38
:1009C00012C09081809102078F5F8F73209103077F
:1009D000821751F0E0910207F0E0E751F94F958F4F
:1009E0008093020701C08081FF91EF919F918F91C9
:1009F0002F910F900FBE0F901F9018951F920F927E
:100A00000FB60F9211242F933F938F939F93AF9321
:100A1000BF938091E5069091E606A091E706B0911C
:100A2000E80630916F0123E0230F2D3720F4019663
:100A3000A11DB11D05C026E8230F0296A11DB11D01
:100A400020936F018093E5069093E606A093E70656
:100A5000B093E8068091700190917101A0917201AC
:100A6000B09173010196A11DB11D80937001909307
:100A70007101A0937201B0937301BF91AF919F91E7
:100A80008F913F912F910F900FBE0F901F9018954F
:100A90001F920F920FB60F9211242F933F934F93F3
:100AA0005F936F937F938F939F93AF93BF93EF93D6
:100AB000FF938091B900887F803609F49CC068F567
:100AC000883209F45BC090F4803109F454C038F4E2
:100AD000882309F4F6C0883009F44DC0F6C0883187
:100AE00009F44CC0803209F45DC0EFC0803409F4D1
:100AF00068C048F4803309F455C0883309F0E5C074
:100B00008093BE06D8C0803509F44FC0883509F4FB
:100B10005DC0883409F0D9C0D6C0883909F4C7C08F
:100B2000A8F4883709F467C038F4883609F463C03C
:100B3000803709F460C0C9C0883809F4B8C080396A
:100B400009F45FC0803809F0C0C05BC0803B09F485
:100B500086C038F4803A09F466C0883A09F47FC048
:100B6000B4C0803C09F4A7C0883C09F4A4C0883B09
:100B700009F48AC0AAC080919B0610C09091BD065E
:100B80008091BC06981770F5E091BD0681E08E0F4C
:100B90008093BD06F0E0E456F94F80818093BB005E
:100BA00085EC86C08093BE068EC0E091BD0681E0D4
:100BB0008E0F8093BD068091BB00F0E0E456F94FA4
:100BC00080839091BD068091BC066EC0E091BD0609
:100BD00081E08E0F8093BD068091BB00F0E0E4566B
:100BE000F94F80838091BF0681116DC081E08093B1
:100BF0009A0684EA61C083E08093C00610926E0179
:100C0000CFCF80916E01803208F051C0E0916E012B
:100C100081E08E0F80936E018091BB00F0E0E25B7B
:100C2000FE4F8083BDCF85EC8093BC001092C00640
:100C300080916E01803230F4E0916E01F0E0E25B71
:100C4000FE4F108260916E0170E0E0914C01F091D6
:100C50004D018EE491E0099510926E0136C084E05A
:100C60008093C00610924B0110924A01E091480116
:100C7000F0914901099580914A01811105C081E0F7
:100C800080934A0110922801E0914B0181E08E0F80
:100C900080934B01F0E0E85DFE4F80818093BB00C4
:100CA00090914B0180914A01981708F479CF85E81B
:100CB0008093BC000AC085EC8093BC001092C006F3
:100CC00004C01092BE060E94F702FF91EF91BF91FF
:100CD000AF919F918F917F916F915F914F913F91D4
:100CE0002F910F900FBE0F901F901895E9EEF6E030
:100CF0001382128288EE93E0A0E0B0E084839583B3
:100D0000A683B78324E031E03183208325EC30E0F3
:100D10003587248724EC30E03787268720EC30E0C5
:100D2000318B208B21EC30E0338B228B22EC30E0B6
:100D3000358B248B26EC30E0378B268B118E128E70
:100D4000138E148EE6E8F7E0138212828483958373
:100D5000A683B78386E191E0918380830895CF9342
:100D6000DF93CDB7DEB7C258D1090FB6F894DEBF16
:100D70000FBECDBF789484B5826084BD84B5816098
:100D800084BD85B5826085BD85B5816085BD809156
:100D90006E00816080936E001092810080918100CE
:100DA00082608093810080918100816080938100C6
:100DB000809180008160809380008091B100846088
:100DC0008093B1008091B00081608093B0008091E9
:100DD0007A00846080937A0080917A0082608093A8
:100DE0007A0080917A00816080937A0080917A0005
:100DF000806880937A001092C100E091F906F0912A
:100E0000FA0682E08083E091F506F091F606108202
:100E1000E091F706F091F8068FEC808310920107BD
:100E2000E091FD06F091FE0686E08083E091FB06EE
:100E3000F091FC06808180618083E091FB06F09157
:100E4000FC06808188608083E091FB06F091FC06BF
:100E5000808180688083E091FB06F091FC068081B0
:100E60008F7D808310927906109278061092C206C8
:100E70001092E4061092C00681E08093BF061092A3
:100E80009A0682E10E943F0183E10E943F01809126
:100E9000B9008E7F8093B9008091B9008D7F8093D7
:100EA000B90088E48093B80085E48093BC008CE0AE
:100EB0008093B8008DED90E00E9467020E94D403F9
:100EC000FF24F39450E5E52E89EE96E00E94E901B7
:100ED000181619060CF004C261E070E087E796E08E
:100EE0000E94820080917706813019F0813309F0E9
:100EF0004AC061E070E0CE0101960E948200198133
:100F0000A12EB12C64EF71E080E090E00E94BD0260
:100F100089E990E00E9467020E94D403F092C10622
:100F20001093E3061092C2061092E40660E086E891
:100F300097E00E947D030E94E20008E010E060E27A
:100F400070E0C5010E94590490917806809179065D
:100F50009817F1F340E2C42ED12C86E897E00E9466
:100F6000390380937503682F70E080E090E04AE0D9
:100F70000E9408040E94D40381E0C81AD10869F7CE
:100F800001501109E1F680917706853019F50E942C
:100F9000DC03B090760536E7C32E34E0D32E06E7A7
:100FA00013E02091740330E0A801465753404217E4
:100FB000530754F4F80141918F01F60161916F01DB
:100FC0008B2D0E94B003EDCF8DED90E00E94670263
:100FD0000E94D40380917706843009F05AC061E002
:100FE00070E086E795E00E94820068EC70E080E0A7
:100FF00090E00E94BD0289E990E00E9467020E9491
:10100000D40361E070E084E793E00E94820068EC22
:1010100070E080E090E00E94BD0289E990E00E94CB
:1010200067020E94D4036091740370E087E795E043
:101030000E9482008091740390E027E7C22E25E091
:10104000D22EA4E7B1E0F6019F01275735402817BB
:1010500039072CF4219130E02D933D93F5CFB090DA
:10106000760500E010E02091740330E0201731078E
:1010700054F0F60141916F01602F8B2D0E94B00357
:101080000F5F1F4FF0CF89E990E00E9467020E9436
:10109000D40380917706863099F400E010E040E0B8
:1010A000602F80E50E94B0030F5F1F4F0115F1E034
:1010B0001F07A9F789E990E00E9467020E94D40304
:1010C00080917706833009F50E94DC0386E7C82EFD
:1010D00084E0D82E06E713E08091740390E0980135
:1010E000265733402817390754F4F80141918F01EE
:1010F000F60161916F0181E50E94B003EDCF8DEDA6
:1011000090E00E9467020E94D403809177068730A6
:10111000B9F561E070E0CE0101960E94820019816C
:1011200064EF71E080E090E00E94BD0289E990E008
:101130000E9467020E94D403F092C106E092E30687
:101140001092C2061092E406612F86E897E00E9492
:101150007D030E94E20061E070E080E590E00E9483
:10116000590486E897E00E94390380937503682F3D
:1011700070E080E090E04AE00E9408040E94D403FE
:1011800080917706883009F561E070E0CE018F57D5
:101190009F4F0E94820061E070E0CE0180589F4F17
:1011A0000E94820061E070E0CE0101960E94820000
:1011B0004981C058DF4F6881C058D040CF57DF4FBA
:1011C0008881C158D0400E94B003809177068A3050
:1011D000C1F561E070E086E795E00E94820089E950
:1011E00090E00E9467020E94D40361E070E086E70D
:1011F00094E00E94820089E990E00E9467020E94C8
:10120000D40361E070E086E793E00E94820089E900
:1012100090E00E9467020E94D4034091760360919F
:101220007604809176050E94B00364E670E080E069
:1012300090E00E94BD028DED90E00E9467020E9446
:10124000D403809177068E3E09F04AC000E010E09A
:1012500098E0F092C1069093E3061092C2061092B5
:10126000E406CE57DF4F9883C258D0400E94E20078
:10127000CE57DF4F9881C258D040811109C0E1E0BC
:10128000F0E0EC0FFD1FE00FF11F90830F5F1F4F89
:101290009F5F9F37F1F60115110539F480E090E06A
:1012A0000E9467020E94D40315C0D12C8D2D90E0BE
:1012B000081719077CF0E1E0F0E0EC0FFD1FE80FE4
:1012C000F91F608189EE96E00E9420020E94D403FB
:1012D000D394ECCF8EEE90E00E9467020E94D4037C
:1012E0000E948E02F1CDA1E21A2EAA1BBB1BFD01AA
:1012F0000DC0AA1FBB1FEE1FFF1FA217B307E407F5
:10130000F50720F0A21BB30BE40BF50B661F771F4C
:10131000881F991F1A9469F760957095809590952C
:101320009B01AC01BD01CF010895EE0FFF1F059099
:10133000F491E02D099481E090E0F8940C94A009D8
:04134000F894FFCF4F
:101344000000000020028D01B8016C02E901C70110
:10135400DB01000000007D034D03AD03290385017B
:0813640039032A030D0A000001
:107800000C94343C0C94513C0C94513C0C94513CE1
:107810000C94513C0C94513C0C94513C0C94513CB4
:107820000C94513C0C94513C0C94513C0C94513CA4
:107830000C94513C0C94513C0C94513C0C94513C94
:107840000C94513C0C94513C0C94513C0C94513C84
:107850000C94513C0C94513C0C94513C0C94513C74
:107860000C94513C0C94513C11241FBECFEFD8E036
:10787000DEBFCDBF11E0A0E0B1E0ECE9FFE702C060
:1078800005900D92A230B107D9F712E0A2E0B1E065
:1078900001C01D92AD30B107E1F70E942D3D0C945F
:1078A000CC3F0C94003C982F959595959595959582
:1078B000905D8F708A307CF0282F295A8091C0000B
:1078C00085FFFCCF9093C6008091C00085FFFCCF60
:1078D0002093C6000895282F205DF0CF982F809127
:1078E000C00085FFFCCF9093C6000895EF92FF92F1
:1078F0000F931F93EE24FF2487018091C00087FD22
:1079000017C00894E11CF11C011D111D81E4E8164B
:1079100082E4F8068FE0080780E0180770F3E09132
:107920000401F091050109958091C00087FFE9CF1E
:107930008091C6001F910F91FF90EF9008950E94D3
:10794000763C982F8091C00085FFFCCF9093C600B5
:1079500091362CF490330CF09053892F089597555D
:10796000892F08951F930E949F3C182F0E949F3CCF
:107970001295107F810F1F9108951F93182F882350
:1079800021F00E94763C1150E1F71F9108951F935A
:10799000182F0E94763C803249F0809103018F5F5E
:1079A000809303018530C1F01F9108958091C0003C
:1079B00085FFFCCF84E18093C6008091C00085FFE5
:1079C000FCCF1093C6008091C00085FFFCCF80E102
:1079D0008093C6001F910895E0910401F091050184
:1079E00009951F9108950E94763C803241F0809164
:1079F00003018F5F80930301853081F008958091AA
:107A0000C00085FFFCCF84E18093C6008091C00058
:107A100085FFFCCF80E18093C6000895E0910401CA
:107A2000F09105010995089540E951E08823A1F0FE
:107A30002D9A28EE33E0FA013197F1F721503040CA
:107A4000D1F72D9828EE33E0FA013197F1F7215064
:107A50003040D1F7815061F708953F924F925F9285
:107A60006F927F928F929F92AF92BF92CF92DF924E
:107A7000EF92FF920F931F93CF93DF93000080E16B
:107A80008093C4001092C50088E18093C10086E015
:107A90008093C2005098589A259A81E00E94143D24
:107AA00024E1F22E9EE1E92E85E9D82E0FE0C02ECA
:107AB00010E1B12EAA24A394B1E49B2EA6E58A2E50
:107AC000F2E57F2EE0E26E2E79E4572E63E5462E36
:107AD00050E5352E0E94763C8033B1F18133B9F107
:107AE000803409F46FC0813409F476C0823409F41B
:107AF00085C0853409F488C0803531F1823521F1A3
:107B0000813511F1853509F485C0863509F48DC0BC
:107B1000843609F496C0843709F403C1853709F423
:107B200072C1863709F466C0809103018F5F80932C
:107B30000301853079F6E0910401F0910501099582
:107B40000E94763C803351F60E94F33CC3CF0E94E2
:107B5000763C803249F78091C00085FFFCCFF092DF
:107B6000C6008091C00085FFFCCF9092C600809136
:107B7000C00085FFFCCF8092C6008091C00085FFC9
:107B8000FCCF7092C6008091C00085FFFCCF609250
:107B9000C6008091C00085FFFCCF5092C600809146
:107BA000C00085FFFCCF4092C6008091C00085FFD9
:107BB000FCCF3092C6008091C00085FFFCCFB09210
:107BC000C60088CF0E94763C863808F4BDCF0E945C
:107BD000763C0E94F33C7ECF0E94763C803809F4CC
:107BE0009CC0813809F40BC1823809F43CC1883942
:107BF00009F48FC080E00E94C73C6CCF84E10E94F2
:107C0000BD3C0E94F33C66CF85E00E94BD3C0E94D3
:107C1000F33C60CF0E94763C809306010E94763C44
:107C2000809307010E94F33C55CF0E94763C80333D
:107C300009F41DC183E00E94BD3C80E00E94C73C66
:107C400049CF0E94763C809309020E94763C809343
:107C5000080280910C028E7F80930C020E94763C79
:107C6000853409F415C18091080290910902892B8D
:107C700089F000E010E00E94763CF801E85FFE4FDA
:107C800080830F5F1F4F80910802909109020817AF
:107C9000190788F30E94763C803209F045CF809125
:107CA0000C0280FF01C16091060170910701660F0F
:107CB000771F7093070160930601A0910802B091AD
:107CC00009021097C9F0E8E0F1E09B01AD014E0F09
:107CD0005F1FF999FECF32BD21BD819180BDFA9A17
:107CE000F99A2F5F3F4FE417F50799F76A0F7B1F4B
:107CF00070930701609306018091C00085FFFCCF5F
:107D0000F092C6008091C00085FFFCCFB092C60003
:107D1000E1CE83E00E94C73CDDCE82E00E94C73CFA
:107D2000D9CE0E94763C809309020E94763C8093D3
:107D300008028091060190910701880F991F909386
:107D40000701809306010E94763C853409F4A6C0A1
:107D500080910C028E7F80930C020E94763C8032D0
:107D600009F0B8CE8091C00085FFFCCFF092C6002C
:107D7000609108027091090261157105B9F140E046
:107D800050E080910C02A82FA170B82FB27011C0E2
:107D9000BB2309F45CC0E0910601F0910701319624
:107DA000F0930701E09306014F5F5F4F46175707B7
:107DB000E8F4AA2369F3F999FECF209106013091E6
:107DC000070132BD21BDF89A90B58091C00085FFB2
:107DD000FCCF9093C6002F5F3F4F30930701209355
:107DE00006014F5F5F4F4617570718F38091C00099
:107DF00085FDE5CE8091C00085FFF8CFE0CE81E023
:107E00000E94C73C67CE0E94763C803209F08CCE3F
:107E10008091C00085FFFCCFF092C6008091C00029
:107E200085FFFCCFE092C6008091C00085FFFCCFAB
:107E3000D092C6008091C00085FFFCCFC092C600E2
:107E40008091C00085FFFCCFB092C60043CEE09188
:107E50000601F091070194918091C00085FFFCCF4D
:107E60009093C6009CCF80E10E94C73C33CE0E9415
:107E7000763C0E94763C182F0E94763C112309F430
:107E800083C0113009F484C08FE00E94C73C22CE29
:107E900080910C02816080930C02E5CE80910C02EF
:107EA000816080930C0259CF809107018823880F4D
:107EB000880B8A2180930B02809106019091070123
:107EC000880F991F90930701809306018091080203
:107ED00080FF09C080910802909109020196909359
:107EE000090280930802F894F999FECF1127E091D6
:107EF0000601F0910701C8E0D1E08091080290915D
:107F00000902103091F40091570001700130D9F34B
:107F100003E000935700E89500915700017001308D
:107F2000D9F301E100935700E89509901990009169
:107F3000570001700130D9F301E000935700E89534
:107F40001395103498F011270091570001700130FB
:107F5000D9F305E000935700E895009157000170B0
:107F60000130D9F301E100935700E895329602976A
:107F700009F0C7CF103011F00296E5CF112480919F
:107F8000C00085FFB9CEBCCE8EE10E94C73CA2CD19
:0C7F900085E90E94C73C9ECDF894FFCF0D
:027F9C00800063
:040000030000780081
:00000001FF
